{
  "_format": "hh-sol-artifact-1",
  "contractName": "RFID_Car",
  "sourceName": "contracts/rfid_car.sol",
  "abi": [
    {
      "inputs": [],
      "name": "read_num",
      "outputs": [
        {
          "internalType": "uint32",
          "name": "",
          "type": "uint32"
        }
      ],
      "stateMutability": "view",
      "type": "function"
    },
    {
      "inputs": [
        {
          "internalType": "uint32",
          "name": "_val",
          "type": "uint32"
        }
      ],
      "name": "update_num",
      "outputs": [],
      "stateMutability": "nonpayable",
      "type": "function"
    }
  ],
  "bytecode": "0x608060405234801561001057600080fd5b5061017f806100206000396000f3fe608060405234801561001057600080fd5b50600436106100365760003560e01c806326259f081461003b57806352a9f1f514610057575b600080fd5b610055600480360381019061005091906100f2565b610075565b005b61005f610098565b60405161006c919061012e565b60405180910390f35b806000806101000a81548163ffffffff021916908363ffffffff16021790555050565b60008060009054906101000a900463ffffffff16905090565b600080fd5b600063ffffffff82169050919050565b6100cf816100b6565b81146100da57600080fd5b50565b6000813590506100ec816100c6565b92915050565b600060208284031215610108576101076100b1565b5b6000610116848285016100dd565b91505092915050565b610128816100b6565b82525050565b6000602082019050610143600083018461011f565b9291505056fea26469706673582212208c6067c13bf8f4f9062dfaabbadf187b41d645d947d0ed61f247e28b0c05fdc864736f6c63430008130033",
  "linkReferences": {},
  "deployedLinkReferences": {}
}