{
  "_format": "hh-sol-artifact-1",
  "contractName": "RFID_Car",
  "sourceName": "contracts/rfid_car.sol",
  "abi": [
    {
      "inputs": [],
      "name": "read_num",
      "outputs": [
        {
          "internalType": "uint32",
          "name": "",
          "type": "uint32"
        }
      ],
      "stateMutability": "view",
      "type": "function"
    },
    {
      "inputs": [
        {
          "internalType": "uint32",
          "name": "_val",
          "type": "uint32"
        }
      ],
      "name": "update_num",
      "outputs": [
        {
          "internalType": "uint32",
          "name": "",
          "type": "uint32"
        }
      ],
      "stateMutability": "nonpayable",
      "type": "function"
    }
  ],
  "bytecode": "0x608060405260016000806101000a81548163ffffffff021916908363ffffffff16021790555034801561003157600080fd5b506101aa806100416000396000f3fe608060405234801561001057600080fd5b50600436106100365760003560e01c806326259f081461003b57806352a9f1f51461006b575b600080fd5b6100556004803603810190610050919061011d565b610089565b6040516100629190610159565b60405180910390f35b6100736100c3565b6040516100809190610159565b60405180910390f35b6000816000806101000a81548163ffffffff021916908363ffffffff16021790555060008054906101000a900463ffffffff169050919050565b60008060009054906101000a900463ffffffff16905090565b600080fd5b600063ffffffff82169050919050565b6100fa816100e1565b811461010557600080fd5b50565b600081359050610117816100f1565b92915050565b600060208284031215610133576101326100dc565b5b600061014184828501610108565b91505092915050565b610153816100e1565b82525050565b600060208201905061016e600083018461014a565b9291505056fea26469706673582212203e4b9a4ba8980d660df001930dfe0bdab591bbe361109e0771fe9441ac60d15264736f6c63430008130033",
  "linkReferences": {},
  "deployedLinkReferences": {}
}