{
  "_format": "hh-sol-artifact-1",
  "contractName": "RFID_Car",
  "sourceName": "contracts/rfid_car.sol",
  "abi": [
    {
      "inputs": [],
      "stateMutability": "nonpayable",
      "type": "constructor"
    },
    {
      "inputs": [],
      "name": "myself",
      "outputs": [
        {
          "internalType": "address",
          "name": "",
          "type": "address"
        }
      ],
      "stateMutability": "view",
      "type": "function"
    },
    {
      "inputs": [],
      "name": "read_num_add",
      "outputs": [
        {
          "internalType": "uint32",
          "name": "",
          "type": "uint32"
        },
        {
          "internalType": "address",
          "name": "",
          "type": "address"
        }
      ],
      "stateMutability": "view",
      "type": "function"
    },
    {
      "inputs": [
        {
          "internalType": "uint32",
          "name": "_val",
          "type": "uint32"
        }
      ],
      "name": "update_num",
      "outputs": [
        {
          "internalType": "uint32",
          "name": "",
          "type": "uint32"
        }
      ],
      "stateMutability": "nonpayable",
      "type": "function"
    }
  ],
  "bytecode": "0x608060405234801561001057600080fd5b50600a6000806101000a81548163ffffffff021916908363ffffffff16021790555033600060046101000a81548173ffffffffffffffffffffffffffffffffffffffff021916908373ffffffffffffffffffffffffffffffffffffffff1602179055506102a5806100826000396000f3fe608060405234801561001057600080fd5b50600436106100415760003560e01c806326259f0814610046578063d276fd9314610076578063e39fda9c14610094575b600080fd5b610060600480360381019061005b9190610193565b6100b3565b60405161006d91906101cf565b60405180910390f35b61007e6100ed565b60405161008b919061022b565b60405180910390f35b61009c610113565b6040516100aa929190610246565b60405180910390f35b6000816000806101000a81548163ffffffff021916908363ffffffff16021790555060008054906101000a900463ffffffff169050919050565b600060049054906101000a900473ffffffffffffffffffffffffffffffffffffffff1681565b60008060008054906101000a900463ffffffff16600060049054906101000a900473ffffffffffffffffffffffffffffffffffffffff16915091509091565b600080fd5b600063ffffffff82169050919050565b61017081610157565b811461017b57600080fd5b50565b60008135905061018d81610167565b92915050565b6000602082840312156101a9576101a8610152565b5b60006101b78482850161017e565b91505092915050565b6101c981610157565b82525050565b60006020820190506101e460008301846101c0565b92915050565b600073ffffffffffffffffffffffffffffffffffffffff82169050919050565b6000610215826101ea565b9050919050565b6102258161020a565b82525050565b6000602082019050610240600083018461021c565b92915050565b600060408201905061025b60008301856101c0565b610268602083018461021c565b939250505056fea264697066735822122075d105ad1fcebe7ac9ab487130a301c821485af7b1c9f92164a3b0e1c2b3f97564736f6c63430008130033",
  "linkReferences": {},
  "deployedLinkReferences": {}
}